S01700004C4E383231785F466C6173685F324D422E6D6F7450
S1130000FD0227033F036903850387038903000077
S113001010B4A020C000B149FF22D2020A60486097
S11300204B69CC68A406FCD5DB07F7D410BC704739
S1130030AA48AB4901600621416000214161C168C1
S11300408906FCD5704710B50400FFF7F1FFA348FB
S1130050A4490160202141600461002144E1F1B51B
S11300600C001700BD08BE07B60FFFF7E1FF9B4861
S1130070791E89B2FC2252020A43026002214160C5
S1130080009901610021012D0FDB8A00A218137869
S113009057783F02DB1997783F04DB19D2781206B0
S11300A09A184261491CA942EFDB012E08D1A9002C
S11300B0615C4161C1688906FCD5FFF7A9FFF1BD08
S11300C0022E06D1A90061180A784978090251184C
S11300D0EFE7032EEED1A90061180A784B781B02D2
S11300E0D218897809045118E3E770B49308940787
S11300F0A40F7A4D521E92B2FC26760216432E604D
S1130100C02292006A602861002B0AD068690870D6
S1130110020A4A70020C8A70000EC870091D5B1E28
S1130120F4D1200005D068690870491C000A641ED7
S1130130FAD170BC7047F8B505000E001400280A07
S11301400002A84211D0802149004018471BB8B2D0
S1130150844200D22700BAB231002800FFF77FFFA3
S1130160B8B22D18BFB2F619241AE0B26946088055
S113017068460088201A000A0DD034000600802743
S11301807F003A0021002800FFF769FFED19E41908
S1130190761EF6D1260068460088002805D06846F9
S11301A0028831002800FFF75AFFF1BD80B5FFF740
S11301B03FFF4A484A490160602141600021416192
S11301C0C1688906FCD5FFF723FF01BDF8B50C0013
S11301D00500802109028C4245D3C10BC90380224A
S11301E012028918081A00900603360E012E06DB47
S11301F0D7082800FFF727FFED19761EF9D10098DC
S1130200201A4600360C4004400C0105090D491E15
S11302108941C943C90F000B4718BFB2012E15DB32
S11302202E4C00200090FFF703FF2E482060522040
S11302306060256100986061E0688006FCD5FFF786
S1130240E7FE802000022D18761EECD1012F09DB79
S1130250802676012C003D002000FFF7F4FEA4194F
S11302606D1EF9D1F1BD2005000D401E8041C04333
S1130270C00F210B0E18B6B2012EF3DB80246401EB
S11302802800FFF7E0FE2D19761EF9D1F1BDF4B573
S1130290160A18D0114A0B00174C1460C024A4008D
S11302A054601061402554691C70270A5F70270C44
S11302B09F70240EDC701B1D6D1EF4D1930DC918A4
S11302C0C018761EE7D1009AD2B2002A01D0FFF7F7
S11302D00CFFF1BD80B5FFF72EFF01BD00400540C6
S11302E000FE0700FFFF01004161C1688906FCD5DB
S11302F0FFF78EFE10BD0000FFF8010050680021DA
S1130300018008228270C1700122027142718271DF
S1130310C271027241728272026141615102816151
S1130320C900C161704710B50C00100042694168F2
S11303300069FFF7ACFF00202060606010BDF2B5DB
S113034055685069060A14690AD080277F003A006C
S113035029002000FFF7BEFFE419ED19761EF4D141
S1130360009800210160F1BD80B510695269002335
S11303700B60002A03D01103FFF728FF01BDFFF72C
S10D038015FF01BD70477047704778
S9030000FC
